:107800000C943E3C0C945B3C0C945B3C0C945B3CB9
:107810000C945B3C0C945B3C0C945B3C0C945B3C8C
:107820000C945B3C0C945B3C0C945B3C0C945B3C7C
:107830000C945B3C0C945B3C0C945B3C0C945B3C6C
:107840000C945B3C0C945B3C0C945B3C0C945B3C5C
:107850000C945B3C0C945B3C0C945B3C0C945B3C4C
:107860000C945B3C0C945B3C0C945B3C0C945B3C3C
:107870000C945B3C0C945B3C0C945B3C11241FBE51
:10788000CFEFD8E0DEBFCDBF11E0A0E0B1E0EEED7C
:10789000FFE702C005900D92A230B107D9F712E0C0
:1078A000A2E0B1E001C01D92AD30B107E1F70E9446
:1078B000743D0C94ED3F0C94003C90910501913087
:1078C00019F0923041F008959091C00095FFFCCFDF
:1078D0008093C60008959091C80095FFFCCF8093D7
:1078E000CE000895CF93982F95959595959595955C
:1078F000905DC82FCF70CA304CF4C05D892F0E94B4
:107900005D3C8C2F0E945D3CCF910895C95A892F10
:107910000E945D3C8C2F0E945D3CCF910895CF92D8
:10792000DF92EF92FF9280910501813069F1823000
:1079300031F080E0FF90EF90DF90CF900895CC245D
:10794000DD2476018091C80087FD17C00894C11C12
:10795000D11CE11CF11C81E4C81682E4D8068FE03A
:10796000E80680E0F80670F3E0910201F09103016F
:1079700009958091C80087FFE9CF8091CE00FF90E4
:10798000EF90DF90CF900895CC24DD247601809194
:10799000C00087FD17C00894C11CD11CE11CF11C5C
:1079A00081E4C81682E4D8068FE0E80680E0F80695
:1079B00070F3E0910201F091030109958091C000FC
:1079C00087FFE9CF8091C600FF90EF90DF90CF90C6
:1079D0000895CF930E948F3CC82F0E945D3CC13612
:1079E00034F4C0330CF0C0538C2FCF910895C75599
:1079F0008C2FCF910895CF930E94E93CC82F0E940D
:107A0000E93CC295C07F8C0FCF910895209105016C
:107A1000882339F0213031F0223061F08150882301
:107A2000C9F708959091C00097FFFCCF9091C600D0
:107A30008150F5CF9091C80097FFFCCF9091CE0078
:107A40008150EDCFCF93C82F0E948F3C803281F0C0
:107A5000809104018F5F80930401853011F0CF91F4
:107A60000895E0910201F09103010995CF910895E5
:107A700084E10E945D3C8C2F0E945D3C80E10E946D
:107A80005D3CEDCF0E948F3C803271F0809104010B
:107A90008F5F80930401853009F00895E091020121
:107AA000F09103010995089584E10E945D3C80E115
:107AB0000E945D3C089515C0289A2FEF31EE44E0F6
:107AC000215030404040E1F700C0000028982FEFDF
:107AD00031EE44E0215030404040E1F700C000006A
:107AE0008150882349F70895000080910501813075
:107AF00009F44FC2823069F490E19093CC00109267
:107B0000CD001092C80096E09093CA0098E190933F
:107B1000C900209A8B3FD9F08C5F01C0892F289A29
:107B20002FEF31EE44E0215030404040E1F700C0FB
:107B3000000028982FEF31EE44E0215030404040C3
:107B4000E1F700C00000982F9150882339F70E9478
:107B50008F3C8033B1F18133B9F1803409F454C0E2
:107B6000813409F45AC0823409F469C0853409F4B7
:107B70006CC0803531F1823521F1813511F18535C7
:107B800009F469C0863509F471C0843609F47AC0F5
:107B9000843709F4E2C0853709F433C1863709F424
:107BA0004AC0809104018F5F80930401853079F68B
:107BB000E0910201F091030109950E948F3C80330E
:107BC00051F60E94423DC3CF0E948F3C803249F75C
:107BD00084E10E945D3C81E40E945D3C86E50E9458
:107BE0005D3C82E50E945D3C80E20E945D3C89E450
:107BF0000E945D3C83E50E945D3C80E50E945D3C07
:107C000080E10E945D3CA3CF0E948F3C8638C8F281
:107C10000E948F3C0E94423D9ACF0E948F3C803848
:107C200009F408C1813809F409C1823809F40AC18C
:107C3000883909F4FBC080E00E94223D88CF84E1AE
:107C40000E94063D0E94423D82CF85E00E94063D93
:107C50000E94423D7CCF0E948F3C809306010E948F
:107C60008F3C809307010E94423D71CF0E948F3C60
:107C7000803309F4EBC083E00E94063D80E00E945F
:107C8000223D65CF0E948F3C809309020E948F3C69
:107C90008093080280910C028E7F80930C020E94D8
:107CA0008F3C853409F4E3C0809108029091090269
:107CB0000097A1F068E0E62E61E0F62E00E010E00B
:107CC0000E948F3CF70181937F010F5F1F4F8091CE
:107CD0000802909109020817190790F30E948F3C3F
:107CE000803209F05ECF80910C0280FFD9C02091D4
:107CF000060130910701220F331F309307012093B3
:107D0000060180910802909109020097F9F048E07D
:107D1000E42E41E0F42E00E010E0F70161917F01D4
:107D2000C9010E94DF3F20910601309107012F5FBA
:107D30003F4F30930701209306010F5F1F4F809143
:107D40000802909109020817190738F384E10E948C
:107D50005D3C80E10E945D3CFACE0E948F3C8093A6
:107D600009020E948F3C8093080280910601909145
:107D70000701880F991F90930701809306010E94C5
:107D80008F3C853409F486C080910C028E7F8093ED
:107D90000C020E948F3C803209F0D9CE84E10E940F
:107DA0005D3C209108023091090221153105D1F185
:107DB00000E010E080910601909107010CC041FFA6
:107DC0005CC0019690930701809306010F5F1F4FDF
:107DD0000217130738F540910C0240FFF0CF0E94C4
:107DE000D73F0E945D3C809106019091070101966A
:107DF00090930701809306012091080230910902B7
:107E0000E5CF0E948F3C803209F0CBCE84E10E9406
:107E10005D3C8EE10E945D3C85E90E945D3C88E00E
:107E20000E945D3C80E10E945D3C91CE83E00E9417
:107E3000223D8DCE82E00E94223D89CE81E00E94CB
:107E4000223D85CE80E10E94223D81CE0E948F3C62
:107E50000E948F3C082F0E948F3C002309F491C0A0
:107E6000013009F492C088E00E94223D70CE8091DA
:107E70000C02816080930C0217CFFC0184910E9458
:107E80005D3C209108023091090280910601909199
:107E9000070197CF80910C02816080930C0279CF0B
:107EA00080910701880F880B817080930B0280916D
:107EB000060190910701880F991F90930701809305
:107EC00006018091080280FF09C08091080290910C
:107ED000090201969093090280930802F894F99997
:107EE000FECF1127E0910601F0910701C8E0D1E033
:107EF0008091080290910902103091F4009157008E
:107F000001700130D9F303E000935700E895009128
:107F1000570001700130D9F301E100935700E89553
:107F2000099019900091570001700130D9F301E0D8
:107F300000935700E8951395103498F0112700919D
:107F4000570001700130D9F305E000935700E89520
:107F50000091570001700130D9F301E100935700FF
:107F6000E8953296029709F0C7CF103011F00296CB
:107F7000E5CF112484E10E945D3C80E10E945D3CDC
:107F8000E6CD8EE10E94223DE2CD85E90E94223DB0
:107F9000DECD90E19093C4001092C5001092C00015
:107FA00096E09093C20098E19093C100B2CDF99908
:107FB000FECF92BD81BDF89A992780B50895262FEE
:107FC000F999FECF1FBA92BD81BD20BD0FB6F894BE
:0E7FD000FA9AF99A0FBE01960895F894FFCF21
:027FDE00800021
:040000030000780081
:00000001FF
