:10F800000C943E7C0C945B7C0C945B7C0C945B7C39
:10F810000C945B7C0C945B7C0C945B7C0C945B7C0C
:10F820000C945B7C0C945B7C0C945B7C0C945B7CFC
:10F830000C945B7C0C945B7C0C945B7C0C945B7CEC
:10F840000C945B7C0C945B7C0C945B7C0C945B7CDC
:10F850000C945B7C0C945B7C0C945B7C0C945B7CCC
:10F860000C945B7C0C945B7C0C945B7C0C945B7CBC
:10F870000C945B7C0C945B7C0C945B7C11241FBE11
:10F88000CFEFD8E0DEBFCDBF11E0A0E0B1E0EEEDFC
:10F89000FFEF02C005900D92A230B107D9F712E038
:10F8A000A2E0B1E001C01D92AD30B107E1F70E94C6
:10F8B000747D0C94ED7F0C94007C90910501913047
:10F8C00019F0923041F008959091C00095FFFCCF5F
:10F8D0008093C60008959091C80095FFFCCF809357
:10F8E000CE000895CF93982F9595959595959595DC
:10F8F000905DC82FCF70CA304CF4C05D892F0E9434
:10F900005D7C8C2F0E945D7CCF910895C95A892F10
:10F910000E945D7C8C2F0E945D7CCF910895CF92D8
:10F92000DF92EF92FF9280910501813069F1823080
:10F9300031F080E0FF90EF90DF90CF900895CC24DD
:10F94000DD2476018091C80087FD17C00894C11C92
:10F95000D11CE11CF11C81E4C81682E4D8068FE0BA
:10F96000E80680E0F80670F3E0910201F0910301EF
:10F9700009958091C80087FFE9CF8091CE00FF9064
:10F98000EF90DF90CF900895CC24DD247601809114
:10F99000C00087FD17C00894C11CD11CE11CF11CDC
:10F9A00081E4C81682E4D8068FE0E80680E0F80615
:10F9B00070F3E0910201F091030109958091C0007C
:10F9C00087FFE9CF8091C600FF90EF90DF90CF9046
:10F9D0000895CF930E948F7CC82F0E945D7CC13612
:10F9E00034F4C0330CF0C0538C2FCF910895C75519
:10F9F0008C2FCF910895CF930E94E97CC82F0E944D
:10FA0000E97CC295C07F8C0FCF91089520910501AC
:10FA1000882339F0213031F0223061F08150882381
:10FA2000C9F708959091C00097FFFCCF9091C60050
:10FA30008150F5CF9091C80097FFFCCF9091CE00F8
:10FA40008150EDCFCF93C82F0E948F7C803281F000
:10FA5000809104018F5F80930401853011F0CF9174
:10FA60000895E0910201F09103010995CF91089565
:10FA700084E10E945D7C8C2F0E945D7C80E10E946D
:10FA80005D7CEDCF0E948F7C803271F0809104010B
:10FA90008F5F80930401853009F00895E0910201A1
:10FAA000F09103010995089584E10E945D7C80E155
:10FAB0000E945D7C089515C0289A2FEF31EE44E036
:10FAC000215030404040E1F700C0000028982FEF5F
:10FAD00031EE44E0215030404040E1F700C00000EA
:10FAE0008150882349F708950000809105018130F5
:10FAF00009F44FC2823069F490E19093CC001092E7
:10FB0000CD001092C80096E09093CA0098E19093BF
:10FB1000C900209A8B3FD9F08C5F01C0892F289AA9
:10FB20002FEF31EE44E0215030404040E1F700C07B
:10FB3000000028982FEF31EE44E021503040404043
:10FB4000E1F700C00000982F9150882339F70E94F8
:10FB50008F7C8033B1F18133B9F1803409F454C022
:10FB6000813409F45AC0823409F469C0853409F437
:10FB70006CC0803531F1823521F1813511F1853547
:10FB800009F469C0863509F471C0843609F47AC075
:10FB9000843709F4E2C0853709F433C1863709F4A4
:10FBA0004AC0809104018F5F80930401853079F60B
:10FBB000E0910201F091030109950E948F7C80334E
:10FBC00051F60E94427DC3CF0E948F7C803249F75C
:10FBD00084E10E945D7C81E40E945D7C86E50E9458
:10FBE0005D7C82E50E945D7C80E20E945D7C89E410
:10FBF0000E945D7C83E50E945D7C80E50E945D7CC7
:10FC000080E10E945D7CA3CF0E948F7C8638C8F281
:10FC10000E948F7C0E94427D9ACF0E948F7C803808
:10FC200009F408C1813809F409C1823809F40AC10C
:10FC3000883909F4FBC080E00E94227D88CF84E1EE
:10FC40000E94067D0E94427D82CF85E00E94067D53
:10FC50000E94427D7CCF0E948F7C809306010E948F
:10FC60008F7C809307010E94427D71CF0E948F7C20
:10FC7000803309F4EBC083E00E94067D80E00E949F
:10FC8000227D65CF0E948F7C809309020E948F7C29
:10FC90008093080280910C028E7F80930C020E9458
:10FCA0008F7C853409F4E3C08091080290910902A9
:10FCB0000097A1F068E0E62E61E0F62E00E010E08B
:10FCC0000E948F7CF70181937F010F5F1F4F80910E
:10FCD0000802909109020817190790F30E948F7C7F
:10FCE000803209F05ECF80910C0280FFD9C0209154
:10FCF000060130910701220F331F30930701209333
:10FD0000060180910802909109020097F9F048E0FD
:10FD1000E42E41E0F42E00E010E0F70161917F0154
:10FD2000C9010E94DF7F20910601309107012F5FFA
:10FD30003F4F30930701209306010F5F1F4F8091C3
:10FD40000802909109020817190738F384E10E940C
:10FD50005D7C80E10E945D7CFACE0E948F7C809366
:10FD600009020E948F7C8093080280910601909185
:10FD70000701880F991F90930701809306010E9445
:10FD80008F7C853409F486C080910C028E7F80932D
:10FD90000C020E948F7C803209F0D9CE84E10E944F
:10FDA0005D7C209108023091090221153105D1F1C5
:10FDB00000E010E080910601909107010CC041FF26
:10FDC0005CC0019690930701809306010F5F1F4F5F
:10FDD0000217130738F540910C0240FFF0CF0E9444
:10FDE000D77F0E945D7C809106019091070101966A
:10FDF0009093070180930601209108023091090237
:10FE0000E5CF0E948F7C803209F0CBCE84E10E9446
:10FE10005D7C8EE10E945D7C85E90E945D7C88E0CE
:10FE20000E945D7C80E10E945D7C91CE83E00E9417
:10FE3000227D8DCE82E00E94227D89CE81E00E94CB
:10FE4000227D85CE80E10E94227D81CE0E948F7C22
:10FE50000E948F7C082F0E948F7C002309F491C0A0
:10FE6000013009F492C088E00E94227D70CE80911A
:10FE70000C02816080930C0217CFFC0184910E94D8
:10FE80005D7C2091080230910902809106019091D9
:10FE9000070197CF80910C02816080930C0279CF8B
:10FEA00080910701880F880B817080930B028091ED
:10FEB000060190910701880F991F90930701809385
:10FEC00006018091080280FF09C08091080290918C
:10FED000090201969093090280930802F894F99917
:10FEE000FECF1127E0910601F0910701C8E0D1E0B3
:10FEF0008091080290910902103091F4009157000E
:10FF000001700130D9F303E000935700E8950091A8
:10FF1000570001700130D9F301E100935700E895D3
:10FF2000099019900091570001700130D9F301E058
:10FF300000935700E8951395103498F0112700911D
:10FF4000570001700130D9F305E000935700E895A0
:10FF50000091570001700130D9F301E1009357007F
:10FF6000E8953296029709F0C7CF103011F002964B
:10FF7000E5CF112484E10E945D7C80E10E945D7CDC
:10FF8000E6CD8EE10E94227DE2CD85E90E94227DB0
:10FF9000DECD90E19093C4001092C5001092C00095
:10FFA00096E09093C20098E19093C100B2CDF99988
:10FFB000FECF92BD81BDF89A992780B50895262F6E
:10FFC000F999FECF1FBA92BD81BD20BD0FB6F8943E
:0EFFD000FA9AF99A0FBE01960895F894FFCFA1
:02FFDE008000A1
:040000030000F80001
:00000001FF
